{
  "contractName": "Betting",
  "abi": [
    {
      "inputs": [],
      "stateMutability": "nonpayable",
      "type": "constructor"
    },
    {
      "stateMutability": "payable",
      "type": "fallback",
      "payable": true
    },
    {
      "inputs": [],
      "name": "minimumBet",
      "outputs": [
        {
          "internalType": "uint256",
          "name": "",
          "type": "uint256"
        }
      ],
      "stateMutability": "view",
      "type": "function",
      "constant": true
    },
    {
      "inputs": [],
      "name": "owner",
      "outputs": [
        {
          "internalType": "address",
          "name": "",
          "type": "address"
        }
      ],
      "stateMutability": "view",
      "type": "function",
      "constant": true
    },
    {
      "inputs": [
        {
          "internalType": "address",
          "name": "",
          "type": "address"
        }
      ],
      "name": "playerInfo",
      "outputs": [
        {
          "internalType": "uint256",
          "name": "amountBet",
          "type": "uint256"
        },
        {
          "internalType": "uint16",
          "name": "teamSelected",
          "type": "uint16"
        }
      ],
      "stateMutability": "view",
      "type": "function",
      "constant": true
    },
    {
      "inputs": [
        {
          "internalType": "uint256",
          "name": "",
          "type": "uint256"
        }
      ],
      "name": "players",
      "outputs": [
        {
          "internalType": "address",
          "name": "",
          "type": "address"
        }
      ],
      "stateMutability": "view",
      "type": "function",
      "constant": true
    },
    {
      "inputs": [],
      "name": "totalBetsOne",
      "outputs": [
        {
          "internalType": "uint256",
          "name": "",
          "type": "uint256"
        }
      ],
      "stateMutability": "view",
      "type": "function",
      "constant": true
    },
    {
      "inputs": [],
      "name": "totalBetsTwo",
      "outputs": [
        {
          "internalType": "uint256",
          "name": "",
          "type": "uint256"
        }
      ],
      "stateMutability": "view",
      "type": "function",
      "constant": true
    },
    {
      "stateMutability": "payable",
      "type": "receive",
      "payable": true
    },
    {
      "inputs": [],
      "name": "kill",
      "outputs": [],
      "stateMutability": "nonpayable",
      "type": "function"
    },
    {
      "inputs": [
        {
          "internalType": "address",
          "name": "player",
          "type": "address"
        }
      ],
      "name": "checkPlayerExists",
      "outputs": [
        {
          "internalType": "bool",
          "name": "",
          "type": "bool"
        }
      ],
      "stateMutability": "view",
      "type": "function",
      "constant": true
    },
    {
      "inputs": [
        {
          "internalType": "uint8",
          "name": "_teamSelected",
          "type": "uint8"
        }
      ],
      "name": "bet",
      "outputs": [],
      "stateMutability": "payable",
      "type": "function",
      "payable": true
    },
    {
      "inputs": [
        {
          "internalType": "uint16",
          "name": "teamWinner",
          "type": "uint16"
        }
      ],
      "name": "distributePrizes",
      "outputs": [],
      "stateMutability": "nonpayable",
      "type": "function"
    },
    {
      "inputs": [],
      "name": "AmountOne",
      "outputs": [
        {
          "internalType": "uint256",
          "name": "",
          "type": "uint256"
        }
      ],
      "stateMutability": "view",
      "type": "function",
      "constant": true
    },
    {
      "inputs": [],
      "name": "AmountTwo",
      "outputs": [
        {
          "internalType": "uint256",
          "name": "",
          "type": "uint256"
        }
      ],
      "stateMutability": "view",
      "type": "function",
      "constant": true
    }
  ],
  "bytecode": "0x608060405234801561001057600080fd5b50336000806101000a81548173ffffffffffffffffffffffffffffffffffffffff021916908373ffffffffffffffffffffffffffffffffffffffff160217905550655af3107a4000600181905550610e458061006d6000396000f3fe6080604052600436106100ab5760003560e01c80637904f688116100645780637904f688146101c75780638afadeb5146101f05780638da5cb5b1461021b578063c38a8afd14610246578063d0821b0e14610271578063f71d96cb1461028d576100b2565b80634081d916146100b457806341c0e1b5146100f15780634996d51d146101085780634b114691146101335780635bf6b19f14610171578063657335921461019c576100b2565b366100b257005b005b3480156100c057600080fd5b506100db60048036038101906100d69190610a6e565b6102ca565b6040516100e89190610b69565b60405180910390f35b3480156100fd57600080fd5b5061010661039f565b005b34801561011457600080fd5b5061011d6103a1565b60405161012a9190610b84565b60405180910390f35b34801561013f57600080fd5b5061015a60048036038101906101559190610a6e565b6103ab565b604051610168929190610b9f565b60405180910390f35b34801561017d57600080fd5b506101866103dd565b6040516101939190610b84565b60405180910390f35b3480156101a857600080fd5b506101b16103e3565b6040516101be9190610b84565b60405180910390f35b3480156101d357600080fd5b506101ee60048036038101906101e99190610a97565b6103ed565b005b3480156101fc57600080fd5b506102056107d6565b6040516102129190610b84565b60405180910390f35b34801561022757600080fd5b506102306107dc565b60405161023d9190610b4e565b60405180910390f35b34801561025257600080fd5b5061025b610800565b6040516102689190610b84565b60405180910390f35b61028b60048036038101906102869190610ae9565b610806565b005b34801561029957600080fd5b506102b460048036038101906102af9190610ac0565b610979565b6040516102c19190610b4e565b60405180910390f35b600080600090505b600480549050811015610394578273ffffffffffffffffffffffffffffffffffffffff1660048281548110610330577f4e487b7100000000000000000000000000000000000000000000000000000000600052603260045260246000fd5b9060005260206000200160009054906101000a900473ffffffffffffffffffffffffffffffffffffffff1673ffffffffffffffffffffffffffffffffffffffff16141561038157600191505061039a565b808061038c90610d0c565b9150506102d2565b50600090505b919050565b565b6000600254905090565b60056020528060005260406000206000915090508060000154908060010160009054906101000a900461ffff16905082565b60035481565b6000600354905090565b6103f56109b8565b6000806000808060005b60048054905081101561056a57600060048281548110610448577f4e487b7100000000000000000000000000000000000000000000000000000000600052603260045260246000fd5b9060005260206000200160009054906101000a900473ffffffffffffffffffffffffffffffffffffffff1690508861ffff16600560008373ffffffffffffffffffffffffffffffffffffffff1673ffffffffffffffffffffffffffffffffffffffff16815260200190815260200160002060010160009054906101000a900461ffff1661ffff161415610556578088886103e88110610510577f4e487b7100000000000000000000000000000000000000000000000000000000600052603260045260246000fd5b602002019073ffffffffffffffffffffffffffffffffffffffff16908173ffffffffffffffffffffffffffffffffffffffff1681525050868061055290610d0c565b9750505b50808061056290610d0c565b9150506103ff565b5060018761ffff1614156105875760035493506002549250610592565b600254935060035492505b60005b8581101561074757600073ffffffffffffffffffffffffffffffffffffffff1687826103e881106105ef577f4e487b7100000000000000000000000000000000000000000000000000000000600052603260045260246000fd5b602002015173ffffffffffffffffffffffffffffffffffffffff16146107345786816103e88110610649577f4e487b7100000000000000000000000000000000000000000000000000000000600052603260045260246000fd5b602002015192506000600560008573ffffffffffffffffffffffffffffffffffffffff1673ffffffffffffffffffffffffffffffffffffffff16815260200190815260200160002060000154905087826103e881106106d1577f4e487b7100000000000000000000000000000000000000000000000000000000600052603260045260246000fd5b602002015173ffffffffffffffffffffffffffffffffffffffff166108fc86886106fb9190610c1e565b836107069190610c4f565b9081150290604051600060405180830381858888f19350505050158015610731573d6000803e3d6000fd5b50505b808061073f90610d0c565b915050610595565b50600560008273ffffffffffffffffffffffffffffffffffffffff1673ffffffffffffffffffffffffffffffffffffffff1681526020019081526020016000206000808201600090556001820160006101000a81549061ffff02191690555050600460006107b591906109dc565b60009350600092506000600281905550600060038190555050505050505050565b60025481565b60008054906101000a900473ffffffffffffffffffffffffffffffffffffffff1681565b60015481565b61080f336102ca565b1561081957600080fd5b60015434101561082857600080fd5b34600560003373ffffffffffffffffffffffffffffffffffffffff1673ffffffffffffffffffffffffffffffffffffffff168152602001908152602001600020600001819055508060ff16600560003373ffffffffffffffffffffffffffffffffffffffff1673ffffffffffffffffffffffffffffffffffffffff16815260200190815260200160002060010160006101000a81548161ffff021916908361ffff1602179055506004339080600181540180825580915050600190039060005260206000200160009091909190916101000a81548173ffffffffffffffffffffffffffffffffffffffff021916908373ffffffffffffffffffffffffffffffffffffffff16021790555060018160ff16141561095c5734600260008282546109509190610bc8565b92505081905550610976565b346003600082825461096e9190610bc8565b925050819055505b50565b6004818154811061098957600080fd5b906000526020600020016000915054906101000a900473ffffffffffffffffffffffffffffffffffffffff1681565b60405180617d0001604052806103e890602082028036833780820191505090505090565b50805460008255906000526020600020908101906109fa91906109fd565b50565b5b80821115610a165760008160009055506001016109fe565b5090565b600081359050610a2981610db3565b92915050565b600081359050610a3e81610dca565b92915050565b600081359050610a5381610de1565b92915050565b600081359050610a6881610df8565b92915050565b600060208284031215610a8057600080fd5b6000610a8e84828501610a1a565b91505092915050565b600060208284031215610aa957600080fd5b6000610ab784828501610a2f565b91505092915050565b600060208284031215610ad257600080fd5b6000610ae084828501610a44565b91505092915050565b600060208284031215610afb57600080fd5b6000610b0984828501610a59565b91505092915050565b610b1b81610ca9565b82525050565b610b2a81610cbb565b82525050565b610b3981610cc7565b82525050565b610b4881610cf5565b82525050565b6000602082019050610b636000830184610b12565b92915050565b6000602082019050610b7e6000830184610b21565b92915050565b6000602082019050610b996000830184610b3f565b92915050565b6000604082019050610bb46000830185610b3f565b610bc16020830184610b30565b9392505050565b6000610bd382610cf5565b9150610bde83610cf5565b9250827fffffffffffffffffffffffffffffffffffffffffffffffffffffffffffffffff03821115610c1357610c12610d55565b5b828201905092915050565b6000610c2982610cf5565b9150610c3483610cf5565b925082610c4457610c43610d84565b5b828204905092915050565b6000610c5a82610cf5565b9150610c6583610cf5565b9250817fffffffffffffffffffffffffffffffffffffffffffffffffffffffffffffffff0483118215151615610c9e57610c9d610d55565b5b828202905092915050565b6000610cb482610cd5565b9050919050565b60008115159050919050565b600061ffff82169050919050565b600073ffffffffffffffffffffffffffffffffffffffff82169050919050565b6000819050919050565b600060ff82169050919050565b6000610d1782610cf5565b91507fffffffffffffffffffffffffffffffffffffffffffffffffffffffffffffffff821415610d4a57610d49610d55565b5b600182019050919050565b7f4e487b7100000000000000000000000000000000000000000000000000000000600052601160045260246000fd5b7f4e487b7100000000000000000000000000000000000000000000000000000000600052601260045260246000fd5b610dbc81610ca9565b8114610dc757600080fd5b50565b610dd381610cc7565b8114610dde57600080fd5b50565b610dea81610cf5565b8114610df557600080fd5b50565b610e0181610cff565b8114610e0c57600080fd5b5056fea26469706673582212209eee6168d1200a0248a2dfaa4144b7ef03ae8bfcd309ea23b3ed02f6d1568a4264736f6c63430008010033",
  "immutableReferences": {},
  "source": "// SPDX-License-Identifier: MIT\npragma solidity >=0.5.3 <0.9.0;\n\ncontract Betting {\n    address public owner;\n    uint256 public minimumBet;\n    uint256 public totalBetsOne;\n    uint256 public totalBetsTwo;\n    address []public players;\n\n    struct Player {\n        uint256 amountBet;\n        uint16 teamSelected;\n    }\n    // The address of the player and => the user info\n    mapping(address => Player) public playerInfo;\n\n    fallback() external payable {\n        // custom function code\n    }\n\n    receive() external payable {\n        // custom function code\n    }\n\n    constructor () {\n        owner = msg.sender;\n        minimumBet = 100000000000000;\n    }\n\n    function kill() public {\n        // if (msg.sender == owner) selfdestruct(msg.sender);\n    }\n\n    function checkPlayerExists(address player) public view returns (bool){\n        for (uint256 i = 0; i < players.length; i++) {\n            if (players[i] == player) return true;\n        }\n        return false;\n    }\n\n\n    function bet(uint8 _teamSelected) public payable {\n        //The first require is used to check if the player already exist\n        require(!checkPlayerExists(msg.sender));\n        //The second one is used to see if the value sended by the player is\n        //Higher than the minimum value\n        require(msg.value >= minimumBet);\n\n        //We set the player info : amount of the bet and selected team\n        playerInfo[msg.sender].amountBet = msg.value;\n        playerInfo[msg.sender].teamSelected = _teamSelected;\n\n        //then we add the address of the player to the players array\n        players.push(payable(msg.sender));\n\n        //at the end, we increment the stakes of the team selected with the player bet\n        if (_teamSelected == 1) {\n            totalBetsOne += msg.value;\n        }\n        else {\n            totalBetsTwo += msg.value;\n        }\n    }\n    // Generates a number between 1 and 10 that will be the winner\n    function distributePrizes(uint16 teamWinner) public {\n        address [1000] memory winners;\n        //We have to create a temporary in memory array with fixed size\n        //Let's choose 1000\n        uint256 count = 0;\n        // This is the count for the array of winners\n        uint256 LoserBet = 0;\n        //This will take the value of all losers bet\n        uint256 WinnerBet = 0;\n        //This will take the value of all winners bet\n        address add;\n        address playerAddress;\n\n        //We loop through the player array to check who selected the winner team\n        for (uint256 i = 0; i < players.length; i++) {\n            address tempPlayerAddress = players[i];\n\n            //If the player selected the winner team\n            //We add his address to the winners array\n            if (playerInfo[tempPlayerAddress].teamSelected == teamWinner) {\n                winners[count] = tempPlayerAddress;\n                count++;\n            }\n        }\n\n        //We define which bet sum is the Loser one and which one is the winner\n        if (teamWinner == 1) {\n            LoserBet = totalBetsTwo;\n            WinnerBet = totalBetsOne;\n        }\n        else {\n            LoserBet = totalBetsOne;\n            WinnerBet = totalBetsTwo;\n        }\n\n\n        //We loop through the array of winners, to give ethers to the winners\n        // TODO: \n        for (uint256 j = 0; j < count; j++) {\n            // Check that the address in this fixed array is not empty\n            if (winners[j] != address(0)) {\n                add = winners[j];\n                uint256 tempBet = playerInfo[add].amountBet;\n                //Transfer the money to the user\n                // address(uint160(winners[j])).transfer((tempBet * (10000 + (LoserBet * 10000 / WinnerBet))) / 10000);\n                payable(winners[j]).transfer(tempBet * (LoserBet / WinnerBet));\n            }\n        }\n        // Delete all the players\n        delete playerInfo[playerAddress];\n        // Delete all the players array\n        delete players;\n        // players.length = 0;\n        LoserBet = 0;\n        //reinitialize the bets\n        WinnerBet = 0;\n        totalBetsOne = 0;\n        totalBetsTwo = 0;\n    }\n\n    function AmountOne() public view returns (uint256){\n        return totalBetsOne;\n    }\n\n    function AmountTwo() public view returns (uint256){\n        return totalBetsTwo;\n    }\n}\n",
  "sourcePath": "/Users/leo/Develop/project/betting_eth/betting_contract/contracts/Betting.sol",
  "compiler": {
    "name": "solc",
    "version": "0.8.1+commit.df193b15.Emscripten.clang"
  },
  "schemaVersion": "3.3.4",
  "updatedAt": "2021-03-24T10:36:52.883Z",
  "networkType": "ethereum",
  "devdoc": {
    "kind": "dev",
    "methods": {},
    "version": 1
  },
  "userdoc": {
    "kind": "user",
    "methods": {},
    "version": 1
  }
}